:1000000000800020BD0100004D1B0000051B00000A
:10001000051B0000051B0000051B0000051B000060
:10002000051B0000051B0000051B00004D1B000008
:100030004D1B0000051B0000ED380000F1390000E9
:100040004D1B00004D1B00004D1B00004D1B000010
:100050004D1B00004D1B00004D1B00004D1B000000
:100060004D1B00004D1B00004D1B00004D1B0000F0
:100070004D1B00004D1B00004D1B00004D1B0000E0
:100080004D1B00004D1B00004D1B00004D1B0000D0
:100090004D1B00004D1B00004D1B00004D1B0000C0
:1000A0004D1B00004D1B00004D1B00004D1B0000B0
:1000B0004D1B00004D1B00004D1B00004D1B0000A0
:1000C0004D1B00004D1B00004D1B00004D1B000090
:1000D0004D1B00004D1B00004D1B00004D1B000080
:1000E0004D1B00004D1B00004D1B00004D1B000070
:1000F0004D1B0000313D00004D1B00004926000053
:100100004D1B00005D3E00004D1B00004D1B00001C
:100110004D1B00004D1B00004D1B00004D1B00003F
:100120004D1B00004D1B00004D1B00004D1B00002F
:100130004D1B00004D1B00004D1B00004D1B00001F
:100140004D1B00004D1B00004D1B00004D1B00000F
:100150004D1B00004D1B00004D1B00004D1B0000FF
:100160004D1B0000092900004D1B00004D1B000025
:100170004D1B00004D1B00004D1B00004D1B0000DF
:100180004D1B00004D1B00004D1B00004D1B0000CF
:100190004D1B00004D1B00004D1B00004D1B0000BF
:1001A0004D1B00004D1B00004D1B00004D1B0000AF
:1001B0004D1B00004D1B00004D1B0000564B4CF228
:1001C000205210B51A804DF628121A8000BF00BFC9
:1001D00001F0C0FC514B4FF010621A60504A9A6017
:1001E000504ADA60504A136813F4807304D14F49BF
:1001F0000B604FF4A85313604D4B1A78110703D5C9
:100200001A7842F008021A704A4B4B492A221A7097
:100210004A4A4B4B8B4204D252F8040F43F8040B6A
:10022000F8E7484B484900228B4202D243F8042B9E
:10023000FAE74649464A002352F8230041F82300D2
:1002400001336F2BF8D1434B434A802103F8011B44
:100250009342FBD1414B3D4A1A60414B8A221A70AE
:10026000A3F5805324225A70A0221A709A7992071B
:10027000FCD59A79D406FCD43A4A937903F00C035E
:10028000082B384BF9D105221A7143225A719A79F9
:100290009006FCD5334A9179324B4906FBD5324A58
:1002A0004FF0817111600521516020221A709A79F6
:1002B00002F00C020C2AFAD12C4B2D4A1A602D4B5D
:1002C0002D4A1A6000225A60072243F8042C2B4A58
:1002D000C3F80C2D62B601F085FF144B1B68DA07DA
:1002E00005D5274801F04EFD264B274A1A60274BBB
:1002F0001B785B0609D5234C234B22689A4204D114
:100300001F4801F03FFD0023236004F035FE01F09B
:1003100027FC03F0D1FBFEE70E20054030800440AF
:10032000823F04000100002B10D0034014D0034092
:1003300002D0074000E007405893FF1F80B900003B
:100340002087FF1F5893FF1F8C9AFF1F0082FF1FFB
:100350000000000000E400E05FE400E008ED00E0E1
:1003600000500640004006404480044004800440A1
:10037000C010050014E000E03F190100000020203B
:10038000D065455F1CE00340A5C3945A00F00740C8
:10039000FFFFFFFFFFFFFFFFFFFFFFFFFFFFFFFF6D
:1003A000FFFFFFFFFFFFFFFFFFFFFFFFFFFFFFFF5D
:1003B000FFFFFFFFFFFFFFFFFFFFFFFFFFFFFFFF4D
:1003C000FFFFFFFFFFFFFFFFFFFFFFFFFFFFFFFF3D
:1003D000FFFFFFFFFFFFFFFFFFFFFFFFFFFFFFFF2D
:1003E000FFFFFFFFFFFFFFFFFFFFFFFFFFFFFFFF1D
:1003F000FFFFFFFFFFFFFFFFFFFFFFFFFFFFFFFF0D
:10040000FFFFFFFFFFFFFFFFFFFFFFFFDEF9FFFF23
:1004100010B5054C237833B9044B13B10448AFF33E
:1004200000800123237010BD5893FF1F00000000BF
:100430007CB90000084B10B51BB108490848AFF360
:1004400000800848036803B910BD074B002BFBD0A0
:10045000BDE81040184700BF000000005C93FF1F7C
:100460007CB900005893FF1F00000000002807DD42
:1004700010F00700034B08BF0820186000207047E9
:10048000032070477097FF1F70B5044608460D465D
:1004900005F036FD23680246294620465B68BDE824
:1004A0007040184738B5054603F0FAFA0446284666
:1004B00003F0A6FA204438BDF0B5944E336889B0F5
:1004C000062B0FD8DFE813F06C0088009E00BF00F9
:1004D000DA0001015E00012A04D18D4A1378002B55
:1004E00040F005818B4D2B78002B33D08A4C23783C
:1004F0001BBB8A4A01210720136001F0E5FD0121A1
:100500000D2001F0E1FD1321854803F07DF88548B9
:1005100003F076FA2B787F4E63B123786BB90F2105
:10052000814803F071F87F4803F06AFA784A33781B
:1005300001211170237009B0F0BD2B78237009B030
:10054000F0BD734B1B78002BCCD0724D2B78002B59
:1005500040F01B81704C2378002BEED000276F4BAE
:100560003760394607201F6001F0AEFD39460D2087
:1005700001F0AAFD14216D4803F046F8694803F024
:100580003FFAC7E70F216A48624D03F03DF865481E
:1005900003F036FA67492B7801220A603260A3E73C
:1005A000644B654A1B6812685C49002093420860EE
:1005B000C7D00133C5D0564B1B78002BC5D1554D44
:1005C0002B78002BC6D05D4A5D4B12680092009AD2
:1005D0001A600123336089E7564A5A4B12681B6838
:1005E0004E494FF4FA609A4208607FF47BAF534A59
:1005F000554B12680292029A464D1A6002222B78DD
:10060000326071E74D4A5048136803934F490468BC
:10061000039B096841481B1B8B424FF4FA6404603A
:10062000FFF460AF4349474B09681B6899427FF468
:1006300059AF13680493464B049A364D1A6003224F
:100640002B78326050E73D4B41491B680593414A86
:10065000059B0968126831483F4C04605B1A93425D
:1006600080F0A1803D4B3E4918682A4D04F02EFCD5
:10067000002848D004222B78326035E72F4B304ACF
:100680001B6806932B491468069B2B4F234A096865
:1006900039601C1B0E216FF0C7033248136002F053
:1006A000B3FF21461F481B4D03F0FAF914212E48D1
:1006B00002F0AAFF39681B4803F0F2F9194803F069
:1006C0009FF905222B7832600EE71A4A1A4B1268FE
:1006D0001B6812496FF0C7009A4208603FF4FBAEF6
:1006E0000B4A1178002945D0012B7FF4FBAE1F4C3B
:1006F0001F48084D00230F212370137002F084FF60
:10070000084803F07DF92B78EEE600BFC894FF1F80
:100710000C88FF1F8C97FF1F0995FF1F8497FF1FF1
:1007200014B10000FC88FF1F40B1000028B1000098
:1007300004B100007097FF1FFC94FF1F9497FF1FE8
:100740003895FF1F7C94FF1F4096FF1F0088FF1FF6
:100750000C95FF1F0488FF1F30F8FFFF6896FF1FEE
:100760000000DCC2CCB00000DCB00000F094FF1F41
:10077000F4B00000114A124B12680792079A114D0B
:100780001A6001222B783260AEE60F4B1B78002BEB
:100790003FF4ACAE094A0A4B12680192019A1A6002
:1007A00006233360A2E61121084802F02DFF084815
:1007B00003F026F90023336054E700BF9497FF1F2E
:1007C0003895FF1F8C97FF1FF094FF1FB8B00000F3
:1007D000FC88FF1F00291EDD10B44FF6FF7344187C
:1007E00010F8011B08224B4013F0010F4FEA530190
:1007F0001ABF81F4204383F00103C3F34F03013A8E
:10080000F2D1A042ECD1D8B2C3F3072303EB00200E
:1008100080B210BC70474FF6FF7070472DE9F84367
:10082000564C2378032B12D8DFE803F002765413DA
:10083000534D01F063FC2B6840F2ED22C01A904248
:1008400084BF0123237001F0BBFE002879DCBDE8E2
:10085000F8834C4D2F78C7B94B4BDFF840811E7899
:10086000A6F10209464449464046FFF7B3FF18F88F
:10087000092016F8013C03EB0223444A98424FF04A
:1008800001030CBF137017702B7001F099FE002844
:1008900002DD3E4B00221A7001F030FC384B1B6821
:1008A00040F2ED22C01A904250D9384B1B78002BF1
:1008B0005FD12B78002BCAD01621354802F0A4FE58
:1008C000344803F09DF8304A002101231170237051
:1008D000BDE8F8832C4D2B78002B42D001F070FE40
:1008E00000283CDD01F00AFC2B4E254B2F781860C8
:1008F000306001F075FE2B78284A0133D0552B70FB
:1009000001F0FCFB336840F22522C01A90429ED9C8
:1009100003232370BDE8F8831C4A1A4B0025157089
:100920001D7001F04DFEA84291DD01F0E7FB1A4B6E
:10093000154A134918600223157023700860BDE83A
:10094000F88301F0DBFB2860BDE8F8832B78002BEF
:100950003FF47DAF0D4B1B78002BADD077E70E4EEB
:10096000CEE701F03DFE2B780C4A013310702B705E
:10097000B4E701232370BDE8F88300BF0895FF1F8B
:100980005096FF1FC094FF1F5496FF1F3C95FF1FFA
:1009900050B10000FC88FF1F5896FF1F4095FF1FB5
:1009A00010B5041E0FDD114B1B689C424FF0010176
:1009B000A8BF1C46062001F087FB21460520BDE8A4
:1009C000104001F0F1B909D12146052001F07CFB6E
:1009D00021460620BDE8104001F076BB034B1B68A2
:1009E00064429C42A8BF1C460021E3E7FC87FF1F2E
:1009F000F8B5122000F0EAFF184B1B68002B0446E4
:100A000029DB14BF012300231549164A0E68164D31
:100A100003FB04F4146031464FF07E5003F0AEFF48
:100A2000296804F0B5F80746204604F05DF8314621
:100A300004F0AEF80146384603F0A2FF0B4A2860E6
:100A400003461720136001F045FB094B003018BF27
:100A500001201870F8BD4FF0FF33D5E78497FF1FD2
:100A60000888FF1F7894FF1F8897FF1F6896FF1F55
:100A70008C97FF1F10B5A4B004460A4604A8084985
:100A800005F034F8224604A9684605F02FF86846B8
:100A900005F036FA0146684602F0B6FD24B010BDF6
:100AA0007CB100002DE9F04FDFF850A387B09AF831
:100AB0000080B8F1010F00AF03D01C37BD46BDE880
:100AC000F08FC64CC6480A2102F09EFD23787BB108
:100AD0000AF1FF360025022116F8010FFFF7CAFFC1
:100AE0000121C04802F090FD23780135AB42F2DCD1
:100AF000BD4802F085FF9AF80120BC49531E0A70D8
:100B0000102B00F2A182DFE813F041001C02FD006F
:100B100059014E0086009F029F029F029F029F0282
:100B20009F029F029F026101950111000F21B048B1
:100B300002F06AFDAC4802F063FFAE4B18689A8879
:100B400038619B79BB7507F110000521BA82FFF768
:100B500041FE07F10F050312B8757B752E4607F1AC
:100B6000160816F8010F01F0D3FC4645F9D115F827
:100B7000010F0221FFF77EFF01219A4802F044FD98
:100B80004545F4D1984802F03BFF06E016219A480B
:100B900002F03AFD944802F033FF00231C37237023
:100BA000BD46BDE8F08F9AF804309AF802E09AF852
:100BB00003209249FF2B02EB0E2600F08C82002BC3
:100BC00008BF4FF00009002E00F06B82172E00F0D6
:100BD0006082012185220223397407F1100003216C
:100BE0007A74BB74FFF7F6FD07F1180A03120AF8CE
:100BF000040D07F110054046FB7401F089FCAA457D
:100C000005D015F8010F01F083FCAA45F9D10225A2
:100C100011217B484DE018217A48DFF8E0B102F05D
:100C2000F3FC714802F0ECFE9AF802609AF8032097
:100C30009AF804909AF8053002EB0626022E03EB90
:100C4000092900F09D8202252B460122BB74032155
:100C5000862307F110003A747B74FFF7BBFD07F1A0
:100C6000180B03120BF8040D07F1100A4046FB7431
:100C700001F04EFCDA4505D01AF8010F01F048FCEE
:100C8000DA45F9D10721604802F0BEFC4FF00508B3
:100C9000022107F11000FFF7EDFE0121514802F09B
:100CA000B3FCB8F10108F3D14F4802F0A9FE574850
:100CB000152102F0A9FC4C4802F0A2FE092154487B
:100CC00002F0A2FC3146484802F0EAFE464802F033
:100CD00097FE07214F4802F097FC4946424802F030
:100CE000DFFE414802F08CFE10214B4802F08CFCE4
:100CF0002946002310223C4802F092FE3A4802F0B6
:100D00007FFE4AE79AF802209AF803309AF8049096
:100D10009AF8051003EB022A01EB0929BAF1020F38
:100D20004FEA490600F0DE8100231A463B4D0521BB
:100D30002846AE702B71EA70FFF74CFD6E1E031251
:100D4000A8716B71B046063518F8010F01F0E0FB91
:100D50004545F9D11621324802F056FC224802F0EE
:100D60004FFE0F212F4802F04FFC51461E4802F063
:100D700097FE1D4802F044FE15212B4802F044FC6A
:100D80004946194802F08CFE174802F039FE072147
:100D90001D4802F039FC16F8010F0221FFF76AFE28
:100DA0000121104802F030FCAE42F4D101210D487F
:100DB00002F02AFC0C4802F023FEEEE613211B4849
:100DC00002F022FC084802F01BFEE6E61421184857
:100DD00002F01AFC044802F013FEDEE65496FF1FF0
:100DE00084B1000020B30000FC88FF1F0A95FF1F9C
:100DF000C8B20000B0B0000090B100004095FF1FE5
:100E0000BCB10000F8B1000014B200001CB2000038
:100E1000D0B10000DCB10000E4B100007493FF1F0A
:100E2000D8B2000098B20000A8B20000A8B100003B
:100E300034B200001B21BF48DFF83C8302F0E4FB22
:100E4000BD4802F0DDFD9AF803109AF8020002F0A6
:100E50002FFE9AF804209AF805300228834603EB07
:100E6000022600F04981B54D9AF802C09AF803E0D5
:100E70006B71284606212A7185F802C085F803E0C7
:100E8000FFF7A8FC05F1FF390312E871AB7105F11A
:100E900007084D4615F8010F01F03AFB4545F9D119
:100EA0001821A74802F0B0FBA34802F0A9FD0F21CA
:100EB000A44802F0A9FB59469F4802F0F1FD9E4864
:100EC00002F09EFD1521A04802F09EFB31469A4893
:100ED00002F0E6FD984802F093FD16B3DFF898B2F1
:100EE0004FF0000A9BF808309BF8075097480AF12A
:100EF000010A062103EB052502F086FB51468E48C8
:100F000002F0CEFD0221924802F07EFB29468A487B
:100F100002F0C6FD884802F073FD56450BF1020B46
:100F2000E0D107218B4802F06FFB19F8010F022175
:100F3000FFF7A0FD0121884802F066FBC145F4D10E
:100F400020E69AF804209AF802909AF803109AF88A
:100F5000053001EB092903EB022309EB03021F2AE9
:100F600077DCC3F3C7037B600133DBB21A46FB6057
:100F7000073323F00703C7F808D0DFF8E081ADEBB3
:100F8000030D52B3FB68DFF8F4B103F1020A08F174
:100F9000020CC2440DF1FF3E01261EF8011F0BEBAF
:100FA0000900002205E00132D9B2082A8EF80010AB
:100FB0000FD010F8015B06FA02F30B43002DF2D1BB
:100FC00006FA02F3013221EA0301082A8EF8001022
:100FD000EFD10CF8011FE245DFD17D685F4E3B7B0E
:100FE00088F802300635EDB2A5F1020949463046CF
:100FF000FFF7F0FB08EB0503021208F8092003F8DD
:10100000010C002D00F003816B1E751E06EB03081A
:101010002E4616F8010F01F07BFA4645F9D107215B
:101020004C4802F0F1FA15F8010F0221FFF722FDFA
:101030000121494802F0E8FAA845F4D13E4802F0FF
:10104000DFFCD7F808D0A8E51C21454802F0DCFAFF
:1010500098E5822202230125032107F110003D7447
:101060007A74BB74FFF7B6FB07F11806031206F893
:10107000040D07F110054046FB7401F049FAAE4239
:101080003FF48BAD15F8010F01F042FAAE42F9D1F1
:1010900083E5B9F1010F334916BF002081F80090B4
:1010A0000870314D9AF805106971284606212B7198
:1010B00085F802E0EA70FFF78DFB0312E871AB716F
:1010C00005F1FF38073518F8010F01F021FA454501
:1010D000F9D100259CE591F80590B9FA89F94FEA14
:1010E000591970E5B9F1010F7FF41EAE1F4B1B6853
:1010F000C3F30722DBB219E6012E7FF4B4AE98F8F1
:10110000075098F8083013EB05256DD015F007034C
:10111000174A1849084808BF08231360FFF7B4F9B5
:1011200029460548FFF7BEF99AF804209AF80530D9
:1011300099E600BF4CB20000FC88FF1FF494FF1F2B
:101140007CB2000098B20000A8B20000C0B200005B
:101150008CB1000014B2000020B300006C96FF1F99
:10116000F0B20000F094FF1F0095FF1FFC94FF1FDA
:101170007097FF1F68B200004095FF1FA094FF1FEB
:101180004846FFF773F9034600283ED1224D9BF8ED
:1011900002109BF80530A9709BF803E09BF804202F
:1011A0006B712846062185F803E02A71FFF712FBD0
:1011B0000312E871AB7105F1FF38073518F8010F1C
:1011C00001F0A6F9A845F9D10721144802F01CFA4C
:1011D000082502211048FFF74DFC0121104802F0BC
:1011E00013FA013DF5D15FE50E490F48FFF74CF9C1
:1011F0000E490D48FFF748F929460B48FFF752F909
:1012000098F8042098F805302DE605461DE50721DD
:10121000024802F0F9F911E73095FF1F14B20000FF
:1012200020B3000010B30000FC88FF1F68B200006C
:1012300003783BB94378C3B9837813B1C378002BE3
:101240002ED1704743783BB183788BB9C3781BB3F9
:10125000174B03221A607047837883B9C378002B39
:10126000EFD0134B04221A607047837873B970472C
:10127000C378002BE5D10E4B01221A607047C3786A
:10128000002BDED00A4B05221A607047C3785BB989
:10129000074B08221A607047054B02221A607047FC
:1012A000034B06221A607047014B07221A607047F1
:1012B0007C94FF1FF8B50121052000F019FF0121E2
:1012C000062000F015FF0121072000F011FF00218A
:1012D000122000F00DFF0021082000F009FF4A4D08
:1012E0004A4C4B4E01210D2000F002FF0021172037
:1012F00000F0FEFE2946052000F064FE2946062087
:1013000000F060FE0B2000F04DFE0021052000F0F3
:10131000DBFE0021062000F0D7FE0021052000F0B2
:1013200043FD0021072000F0CFFE042239493A4D49
:101330000E2000F0ABFC042238490F2000F0A6FC80
:1013400004223749102000F0A1FC04223549112065
:1013500000F09CFC0E2000F0BDFE031C18BF012312
:101360000F20237000F0B6FE031C18BF01231020CD
:10137000637000F0AFFE031C18BF01231120A3709F
:1013800000F0A8FE031C18BF01232046E370FFF7FE
:101390004FFF254B254C4FF0FF3200210A201A60E9
:1013A00001F04EF8092001F085F80B2001F02CF82F
:1013B00040F2E24000F086FF042000F0F9FF102721
:1013C0001B481C491C4A6F7001234FF0030E06276F
:1013D00084F801E02B702370037047700525022408
:1013E00000200B704D7013705470307000F086FE4A
:1013F000124B0F211860124802F006F91148BDE89F
:10140000F84002F0FDBA00BF00409C46C494FF1FA4
:101410000895FF1F49140000F494FF1F6914000091
:1014200089140000A91400007097FF1F7493FF1F18
:101430003095FF1F0095FF1F6C96FF1F5096FF1FF2
:1014400024B30000FC88FF1F08B50E2000F042FE08
:10145000044B021C18BF012218461A70BDE8084050
:10146000FFF7E6BEC494FF1F08B50F2000F032FE60
:10147000044B021C18BF012218465A70BDE80840F0
:10148000FFF7D6BEC494FF1F08B5102000F022FE5F
:10149000044B021C18BF012218469A70BDE8084090
:1014A000FFF7C6BEC494FF1F08B5112000F012FE5E
:1014B000044B021C18BF01221846DA70BDE8084030
:1014C000FFF7B6BEC494FF1FF8B5154E154D164F65
:1014D00002F070F8002801DD347804B1F8BD02F0A4
:1014E0002DF82B78C0B25BB13E2810D00F490A7896
:1014F000531CDBB21F2BB85407D91F230B70E7E72F
:101500003C28E5D101232B70E2E70B70E0E7074BA5
:101510002C701A781C700123BC543370D8E700BFBC
:101520008197FF1F7494FF1F1095FF1F8097FF1F67
:1015300038B50E4C0E480F4D214605F019FD0146F9
:101540000D4804F06BFC2146002005F011FD03F06E
:1015500009FD0A4B21461860002005F009FD03F043
:10156000FDFC03F0B7F9286038BD00BF34B30000BC
:101570008094FF1F6C97FF1FD094FF1FCC94FF1F18
:1015800010B52C492C4804F0DFFA38B92B4B1B68F6
:10159000012B0BBF2A4A2A4B137018702949264881
:1015A00004F0D2FA30B32849234804F0CDFAA0B9A8
:1015B000264B1B78002B35D1204B1B68002B29DDD7
:1015C00013F00703224A234808BF0823142113609D
:1015D00002F01AF8204802F013FA2049164804F0E5
:1015E000B3FA18B9154B1B68012B00D010BD1C4A6B
:1015F000137010BD114B1B4C1B681B482360072147
:1016000002F002F82168144802F04AFA124802F087
:10161000F7F9C8E71821154801F0F6FF0E4802F067
:10162000EFF9DAE71E21124801F0EEFF0A4802F056
:10163000E7F9D2E738B30000D094FF1FCC94FF1F26
:101640008C97FF1F3CB3000048B300000C88FF1FBD
:101650007097FF1F50B30000FC88FF1F88B3000085
:10166000F094FF1F8497FF1F40B3000090B3000069
:1016700068B3000010B51D4CFFF726FF2378D3B9DF
:10168000FFF7CCF81A4B1B781BB11A4B1B78012BB8
:101690001CD0194B1868FFF783F9184800F062F85E
:1016A000174800F05FF8012817D0164800F05AF8E4
:1016B00001280ED010BD1449144804F0AFFBFFF709
:1016C00037FFFFF75DFF00232370D9E7FFF7EAF943
:1016D000DFE7BDE81040FEF7EFBEFFF789F90C4BDE
:1016E0000C4A1B7883F00103D375DEE78197FF1F57
:1016F0005496FF1F0895FF1F8497FF1F4496FF1FF6
:101700007497FF1F5C96FF1F1095FF1F8094FF1FAB
:101710000C88FF1FA094FF1F08B50521064800F0A4
:1017200011F86421054800F00DF805210448BDE8D2
:10173000084000F007B800BF7497FF1F4496FF1FD2
:101740005C96FF1F10B40024054A047083B0126831
:101750000192019A8160426003B010BC704700BFE3
:101760009497FF1F10B40F4944680B68826883B0D8
:101770000093009B1B1B934210D33AB103782BB903
:1017800022444260012003B010BC70470B680193F3
:10179000019B4360012003B010BC7047002003B0E0
:1017A00010BC70479497FF1F374A384913681B06CF
:1017B000FCD40B6813F08003F8D172B634490A7870
:1017C000002A5FD0334A3448F0B4344C17680668B6
:1017D0002568D4680C303E44143200681268304FDB
:1017E00035442C4420440244C2F34E022D4E2E4870
:1017F0002E4D2F4C42F400423A60376806682D683F
:101800002C4A24680C303E44006812682A4F354444
:101810002C4420440244C2F34E02284E2848294D4D
:10182000294C42F400423A60376806682D68274A1E
:1018300024680C303E4400681268254F35442C441F
:1018400020440244C2F34E02224E2348234D244C2E
:1018500042F400423A60376806682D68214A2468DD
:101860000C303E440068126835442C442044024445
:10187000C2F34E021C4842F4004202600B7062B692
:10188000F0BC704762B6704724B0034024B00B40F0
:101890008E97FF1F38B003403CB0034040B0034078
:1018A0002CB0034058B003405CB0034060B003402C
:1018B00064B003406CB0034030B0034038B00B401C
:1018C0003CB00B4040B00B4044B00B404CB00B4020
:1018D0002CB00B4058B00B405CB00B4060B00B40DC
:1018E00064B00B406CB00B4030B00B4030B42948B2
:1018F000294A2A4B2A4D6024E121047011701B787B
:10190000284C082B30D00A2B2748284937D00C2BDD
:101910000CBF15223D2212232A60236002600B6057
:10192000234B24491B78244ABBB101230B6013606D
:10193000224B23491B78234A012B26D9042B0FD98C
:10194000082B1ED9102B94BF862387230B601360AE
:101950001D4B01221A7030BC70470B601360E7E723
:1019600084230B601360F3E700F58E200F490830E5
:10197000012213232A60236002600B60D0E7192242
:10198000F7E785230B601360E2E780230B601360A9
:10199000DEE700BF00400740014007400D88FF1F01
:1019A00008B003400CB0034008B00B400CB00B4033
:1019B0009197FF1F20B0034020B00B400E88FF1FFF
:1019C00024B0034024B00B408E97FF1F28282FD847
:1019D000334B2DE9F0411E5CFF2E2BD0314B1B7891
:1019E000002B2AD132062CD472B62F4D2F4C2F4605
:1019F000012326602B7062B672B623681B060CD4D6
:101A00003B781BB9F4E72B78002BF1D062B602F0DB
:101A100071F872B623681806F5D5254B1B680022AD
:101A20002A7062B6234A107843FA00F0BDE8F081CC
:101A3000002070470020BDE8F081FFF7B5FE3206B8
:101A4000D2D572B61C4DDFF87C801C4C06F04007E6
:101A5000FFB206F03F06D8F80030DFB123F01003E4
:101A6000C8F8003001232660134A2B7062B672B6A4
:101A7000236819060CD413781BB9ECE72B78002BDC
:101A8000E9D062B602F036F872B623681B06F5D5C7
:101A90000B4BC3E743F01003C8F80030E2E700BF88
:101AA000ACB300008E97FF1F9097FF1F00B003405C
:101AB00010B003408D97FF1F8F97FF1F00B00B40A2
:101AC00010B00B400CB00B400A4A0B49136843F4AA
:101AD000805313600B7843B9084BC0221A70084B2F
:101AE00080F30C0000B218807047044B80221A70FB
:101AF000F5E700BF2C8004409197FF1F21C00C40E8
:101B000000C00C4008B5104C08E0236859050DD4FE
:101B100023681A050FD42368DB0411D42368580303
:101B2000F3D500F0F1FE23685905F1D502F000F974
:101B300023681A05EFD500F087FD2368DB04EDD597
:101B400002F08CF9EAE700BF3480044008B5FFF7E3
:101B5000D9FF00BF014B10221A80704700200540BA
:101B6000704700BF094908B50B6830B16A46184490
:101B7000A2F58052904202D20860184608BD03F0D8
:101B8000F5F90C2303604FF0FF3008BD1088FF1FEC
:101B9000EFF3138070B9EFF310836BB9EFF30582A5
:101BA0005AB94FF48070EFF311832BB1984228BFDC
:101BB000184670474FF0FF3070470F2A01D818467B
:101BC000F1E7014BD05CEEE7F0E300E0704700BFC7
:101BD00010B40F4B53F8302092F880422CB10123FF
:101BE00069B182F8803010BC704703EBC0035B68BA
:101BF0001A6841B922F002021A6010BC704782F8DC
:101C0000003110BC704742F003021A6010BC7047EC
:101C1000D8B300001C4A02EBC00301295B6811D055
:101C200004291BD052F83000002280F8802229B10C
:101C3000022920D0032922D01A6070474FF4807205
:101C40001A60704752F830004FF4A27280F8801288
:101C50001A601A6822F020021A60704752F8301099
:101C60004FF4A272012081F880021A601A6842F0D3
:101C700020021A60704740F203121A6070474FF456
:101C800081721A60704700BFD8B30000212848D87D
:101C9000F8B5042A44D8DFE802F0484B4E0345006B
:101CA0004FF410262B4B03EBC0030D465C682168F4
:101CB00011F4E06148D0284B284A2949C3F89C21F7
:101CC00004F140422748C3F8A411A2F59221264FFF
:101CD000C3F8A0017C292548C3F8A871C3F8AC015A
:101CE0002CD9A2F594237C2B2AD9A2F596237C2B00
:101CF00028D9A2F598237C2B29D9A2F59A227C2AEF
:101D000027D81B4872B6236823F4702343F08072EF
:101D1000C4F384011643236040F82150266062B664
:101D2000F8BD70474FF43026BCE74FF40026B9E702
:101D30004FF44026B6E74FF42026B3E70D48E1E71D
:101D40000D48DFE70D48DDE7FFF764FFB3E70C4818
:101D5000D8E7F8BDD8B300000082FF1FD187FF1F6E
:101D60007987FF1FA587FF1F4D87FF1F2187FF1F53
:101D7000EC88FF1F1488FF1F4C88FF1F9C88FF1FE3
:101D8000CC88FF1F30B4054B054D064C00221021B6
:101D90001A602A602060196030BC704714D003407C
:101DA00004D0034000D00340282838B52ED00029A5
:101DB00004464FDD5F4B1B78012505FA03F28A428A
:101DC00002D8212837D938BD0338C2B2012A3AD9FE
:101DD000202C4AD0192C48D0574A126802FB011215
:101DE00022FA03F31D2800F29B80DFE800F0928BBB
:101DF000847D9999766F9999999999999999996802
:101E0000615A53994C99999999999945494B1B78DD
:101E10000B2B08D90C2B1CBF0C3B19410846BDE805
:101E20003840FFF751BEC3F10C0399400846BDE8A6
:101E30003840FFF749BE2946FFF7CAFE2946BDE8EC
:101E40003840FFF7E7BE3D4A126802FB011222FA52
:101E500003F3C7E72128B6D80021FFF7B9FE2046D3
:101E60000121BDE83840FFF7D5BE354A126802FBB4
:101E7000011222FA03F3B5E73249334A0B604FF4FB
:101E80005173136038BD3149314A0B604FF45173BF
:101E9000136038BD2F49304A0B6040F24443136051
:101EA00038BD2E492E4A0B6040F24443136038BDC2
:101EB0002C492D4A0B6040F24443136038BD2B4936
:101EC0002B4A0B6040F24443136038BD29492A4A2B
:101ED0000B6040F24443136038BD2849284A0B6028
:101EE00040F24443136038BD2649274A0B6040F254
:101EF0004443136038BD2549254A0B6040F24443F2
:101F0000136038BD2349244A0B604FF451731360AA
:101F100038BD2249224A0B604FF45173136038BD1B
:101F2000212C3FF650AF7F29D4BF0021012120464C
:101F300093E700BFF488FF1F088003400890034028
:101F400008800B4010800B4048A0044018800B40D4
:101F50004CA004401880034008B0044010800340A7
:101F600004B004404080034018C00440388003405F
:101F700014C004402880034010B004402080034077
:101F80000CB004403080034010C00440488003403F
:101F90001CC004401890034034900440109003404B
:101FA0003090044038B1102828BF1020044AC3B232
:101FB000107813707047024A01231078137070472D
:101FC000F488FF1F2DE9F8430E4680463249334D11
:101FD000304602F07BFF47F6122300281ABF1D4649
:101FE0004FF002094FF00109002425FA04F002F035
:101FF00077FD4FF05E51074602F0CAFD01463046BC
:1020000002F078FF30B90134072CEED1E80902F074
:1020100067FD07463146384602F06EFE4FF07C51B0
:1020200002F0ACFC02F07AFF4FF6FF729042A8F18A
:10203000030328BF1046012B29D9B8F1170F17D871
:10204000174B23FA08F303F0010383F0010223B9CD
:10205000B8F1190F0FD0BDE8F883124B124D134998
:102060001A6044EAC9042A6008601C60BDE8F8836D
:10207000B8F1200FECD10E4B0E4D0F49002244EA6F
:10208000C9041A602A6008601C60BDE8F8830B4B25
:102090000B4D0C49F2E700BF405489400051250226
:1020A0006006F00000800340048003400880034085
:1020B00000800B4004800B4008800B4000900340E0
:1020C0000490034008900340212801D8FFF780BD09
:1020D000704700BF212806D8044B53F8303093F8DE
:1020E0000002C0B270470020704700BFD8B30000A4
:1020F000212801D8FFF78EBD704700BF72B60D4989
:102100000D4B0E4A1B680868126862B6520102D570
:10211000322B88BF01300A49C3F58C334FF47A72F1
:1021200003F23F13A1FB031302FB00F000EB1310BB
:10213000704700BF9497FF1F18E000E004ED00E037
:10214000398EE3382DE9F843054672B6214F224B0C
:10215000224A1B683C68126862B6520102D5322BD3
:1021600088BF0134A5B3C3F58C331D4EDFF86890EA
:10217000DFF8688003F23F134FF47A72A6FB031373
:1021800002FB04F404EB131472B6D9F800103A6899
:10219000D8F800E062B6C1F58C3303F23F13A6FB1A
:1021A00003031EF0806FC4EB13134FF47A7002D058
:1021B000322988BF013200FB0233B3F57A7F04D3A2
:1021C000013D05D004F57A74DEE701F093FCDBE70E
:1021D000BDE8F8839497FF1F18E000E004ED00E0ED
:1021E000398EE338F8B52D4B2D49DFF8D0E0DFF814
:1021F000D0C02C4E2C4D2D4C2D4A2E4F4FF40000AC
:1022000018604FF0807018604FF0007018604FF049
:10221000806018604FF0006018600020086028237C
:1022200048F6FF71CCF80010CEF800303360136030
:102230002B6023603B60B3629362092245F8242C33
:10224000C4F8D80F05F57F65C7F8D41F07F5FF2739
:1022500007F5FA67C6F8F83F2B6006F5FF26C4F8C5
:10226000D42F05F5FD2504F5FF24386006F2F47639
:102270001148316005F5FF6504F5FD642B602360AE
:102280000260FFF733FB1920FFF75CFF01F0A4F8B1
:1022900040F21310BDE8F840FFF754BF08E100E03A
:1022A0000480034014800340248003402C800340BA
:1022B0001C8003403480034000800B400C800340AE
:1022C000088003402B4A2C491368F0B543F400639F
:1022D00013600A78294F2A4E2A4D2B4C2B49002394
:1022E000092A3B7033702B7023700B703DD01A2A73
:1022F00021D0274B1B780A2B25D01F2B30D01F282D
:1023000027D8002002460125224B234C1A7023496E
:102310005D7004224FF0020E88273C2640259872FB
:102320009A704FF4004083F813E05A751F74DE7002
:1023300025700860F0BD1A4B40F213321A60144B3E
:102340001B780A2BD9D1174B4FF451721F281A60F2
:10235000D7D9C0F34432C0F3471500F01F00D3E7CC
:10236000114B4FF451721A60C9E7104B40F213320F
:102370001A60BEE734800440F588FF1F0898FF1FED
:102380009D97FF1F1098FF1F0998FF1F9C97FF1F25
:10239000F688FF1F00B006402FE400E004E100E0F3
:1023A00004D0044010B0044000D004400CB00440FD
:1023B000144B14499B7803F0EC0200F00303134321
:1023C000420700F00F0248BF43F01003042A8B704D
:1023D00013D00C4B0B4A5B79C10603F0EF0348BFE7
:1023E00043F0100353719379820603F0EF03054A1B
:1023F00048BF43F01003937170478B7943F040035B
:102400008B71E6E700B006400A4A38B505461378F6
:1024100003F0FF04002BFAD101212846FFF768FEE4
:1024200021462846FFF750FE034A044B52F8352058
:102430001A6038BD9C97FF1FD8B300000C98FF1F8F
:1024400009B140F08000174A1378984216D010B4B2
:10245000154C246824050FD503F07F030A2B1CD0EC
:102460001F2B11D0002900F07F0114BF60234423EB
:102470000A290DD01F2902D0107010BC70470B49DB
:1024800043F440730B60F7E7084B00241C60E9E756
:10249000074943F440730B60EEE7054B00241C60D2
:1024A000E0E700BFF688FF1F3480044000D00440FE
:1024B00010B00440124B1A7882420CD011490968BE
:1024C000090507D5092A16D01A2A0AD009280DD0DD
:1024D0001A2801D0187070470B4A40F2133111606E
:1024E000F8E7094A002109281160F1D1074A40F2B2
:1024F00013311160EEE7054A00211160E6E700BFE5
:10250000F588FF1F3480044004D004400CB0044020
:102510002DE9F84F234B1B681A053BD5224B1B684E
:102520000BB101221A70DFF89090204D99F800400D
:10253000DFF888801E4E0134272C8ABF4FF0000A36
:102540005FFA84FA54460746AB462B789C4216D174
:10255000FFF71EFB40281FDC33791B06F5D59BF8DF
:1025600000300133272B86BF00221346DAB218F859
:102570000330DBB2F3712A702B789C42E8D00D490E
:102580000B4BFFB20120BC2208F80470087089F8D8
:1025900000A0DA70BDE8F88FFF28D6DD01F0AAFAB6
:1025A000D3E700BF348004400C98FF1F0998FF1F39
:1025B00000B006409C97FF1F1098FF1FA097FF1FB9
:1025C000054A064B10781B78C0B2DBB2984238BF80
:1025D0004030C01A704700BF0898FF1F9D97FF1F2B
:1025E00030B4154B154C1A782378D2B2DBB29A422C
:1025F0001ED001333F2B0ED91149124B08781968B0
:102600000023C0B2237021B1D31A1A2B01DC00239E
:102610000B7030BC70470A480A49C05C0968DDB2DB
:10262000C0B225700029F4D09A4238BF4032EBE79F
:102630004FF0FF30EDE700BF0898FF1F9D97FF1F89
:10264000C897FF1F9897FF1FF0B4384B1A7912F004
:10265000300F2CD072B6997D01F0FF0200293DD0D9
:1026600062B6334F334938780D78334E1C46C0B2CA
:10267000EDB2431C402BE17928BF0023AB4202F1AD
:10268000FF32C9B21CBFF154184612F0FF02F0D15C
:102690002A4B1B68C2B23A704BB1A84236BFC5F193
:1026A0004005401B40192728C4BF01221A701F494A
:1026B000CA78D2B2150616D452060DD51B4B1B791B
:1026C0005B0609D51E4B1F491B6800220A7003B127
:1026D0001A70164B3C22DA70F0BC70474022D97950
:1026E0005A7462B6E3E70B791C06E5D5164B174E14
:1026F0001C783378E4B2DBB29C420ED0144D01E07A
:10270000A3420AD00133282B28BF00230879E85CB4
:10271000C0B2C871087D0728F2D9DBB20349337013
:102720000B79180644BF7C23CB70C5E700B0064088
:102730000898FF1F9D97FF1FC897FF1F9897FF1FBF
:102740000C98FF1F9C97FF1F1098FF1F0998FF1FF1
:10275000A097FF1F431E032B14D872B60A4951F8E5
:10276000230068B170B4094C058834F8132046681A
:1027700041F82360521B24F8132062B670BC7047E6
:1027800062B67047002070476C98FF1F749AFF1F55
:10279000013803280BD872B6074B53F8203043B1E9
:1027A00000205B680130002BFBD162B6704700202F
:1027B00070471846F9E700BFC098FF1F30B472B6E3
:1027C0002B4A13781D0706D52A4B196A002936D0E3
:1027D000996A002941D053781C0706D5254B196CFE
:1027E00000293ED0996C002939D09378190705D576
:1027F000204B196E002936D0996E89B1D3781B070A
:1028000007D51C4BD3F880207AB3D3F88820112148
:102810003AB162B6184B00221A7030BC00F068BEA4
:102820000D21154C154D227843F8315003EBC103AF
:102830000830013A5860227062B630BC70470422FA
:102840000D4C0F4D217843F8325003EBC203083092
:102850004A1E5860227062B6EFE70521E1E70921C0
:10286000DFE70822ECE70C22EAE71022E8E700BFE6
:1028700014B500000080FF1FE998FF1FC80040004A
:1028800088004000431E032B1DD81B4A400140F026
:10289000100030B4104472B6184CE25C032A1BD806
:1028A000DFE802F00212151703220D88E25410F03F
:1028B000080F14BFC823882343EA05430831036087
:1028C000416062B630BC704708300222EDE7052255
:1028D000EBE708300422E8E7094A52F8230038B150
:1028E000084A52F82300416042F8231062B6E9E733
:1028F00042F82310034AF7E70080FF1FF898FF1FF4
:10290000C098FF1FD098FF1F2DE9F04FDFF80CB3E0
:10291000DFF80CA387B044E0AB4F4FEA930807EB16
:10292000C809013ED9F8042003F00803F6B2A2F169
:10293000080003F0FF04002B40F0028157F8383004
:102940001B0C99B222F8081C002B00F0F0809F4B62
:1029500022F8064C42F8044C53F82620002A00F0D6
:10296000C5829B4D55F8263058609A4C45F8260094
:1029700034F81630194424F8161000F099FD002898
:1029800000F0AD82944A954B19F0080F00F1080051
:1029900018BF1346C9F8040047F8383008238BF8ED
:1029A00000309BF80040E4B261071AD58C4B1B78CD
:1029B000A3B18C490A7802F0FF0322B1013BDBB2DC
:1029C0000B7003B900BE88490A7802F0FF032AB1F0
:1029D000013BDBB20B70002B00F0578204238BF815
:1029E000003004F0080303F0FF02002B00F0CC805D
:1029F0009AF80030DBB21E098ED19C08DFF8C8912E
:102A000059F8342009EBC401C2F38302013A496842
:102A10000C2A00F28880DFE802F07C7C86868686BD
:102A200086864786868607000868704D4A68704F1C
:102A3000704E286081B240F28160674B6A604FF04F
:102A4000010E0022814249F834303A60C9F8102062
:102A5000C9F8182086F800E05B4C00F2E380B1F57D
:102A6000D06F80F04683B1F5817F00F0FC8200F2E8
:102A70008D82802900F07783822940F0FA82A9882C
:102A800001F07F01042900F2F4825B485B4C89006D
:102A90000844227062700278930740F1588484F8E9
:102AA00000E04FF0020E42E3514F3A6832B3544B0C
:102AB000504E5449188834780D784028864645F0A1
:102AC000020828BF4FF0400E002C84F0010434703F
:102AD000CEEB00000CBF8824C82409EBC80680B2E6
:102AE00085F0010544EA0E447260188049F83840C8
:102AF00072440D70002800F045813A603B4B1A8803
:102B0000B2F5A06F0FD100219A7859703E4B1A7020
:102B100009E0364A108842F22102904200F03781E3
:102B20002D4A49F83420394A0123137036E72A4ADE
:102B30002A4B19F0080F18BF134647F838302DE715
:102B400000F0D6FC324A334952F82630002B00F010
:102B5000D18158688C5D42F8260003F10802C9F85B
:102B60000420032C05D8DFE804F02C0229260222D9
:102B70008A551A8819F0080F0CBF8823C82343EA26
:102B8000024347F8383009E7E00700F18181210668
:102B900000F1F281A20706D51F4A204913780220CE
:102BA000DBB213700870E30602D51C4B10221A70BA
:102BB00007B0BDE8F08F04228A55DAE705228A556E
:102BC000D7E703228A55D4E70080FF1F6C98FF1FC8
:102BD0001898FF1F749AFF1FC8004000880040002B
:102BE000F498FF1F7D98FF1FFC98FF1FE098FF1FC0
:102BF0001498FF1F7C98FF1FC0200740EC98FF1F10
:102C00002898FF1FE898FF1F98200740942007404E
:102C1000C098FF1FF898FF1F8820074080200740BA
:102C20009020074042F22100814200F02A8100F208
:102C3000D880B1F5086F00F07682B1F5106F40F0E2
:102C40001882226AB349A8780870120600F13A8304
:102C5000D9F82820B049130600F10C83D9F83020A8
:102C6000AD49150600F10183D9F83820AA491406A8
:102C700000F1F682D9F84020A749100600F14A83F6
:102C8000D9F84820A449120600F13F83D9F8502012
:102C9000A149130600F13483D9F858209E4915063E
:102CA00000F12983D9F860209B49140600F11E83A6
:102CB000D9F868209849100600F11383D9F87020DC
:102CC0009549120600F10883D9F878209249130635
:102CD00000F1FD82D9F880208F49150600F131837B
:102CE000D9F888208C49140600F12583D9F8902062
:102CF0008949100600F11983D9F8982086491206EF
:102D000000F10D838548864A864901908648874DA3
:102D1000874C049700230596029580460F46164679
:102D20001D460394306828B1446800F0E1FB20465A
:102D3000002CF9D100233360029B38681A46002327
:102D400042F8253028B1446800F0D2FB2046002C20
:102D5000F9D100223A60019A98F800301146002219
:102D600041F8042B039A0191023B4FF0000122F835
:102D70001510032B00F22B81DFE813F07001250101
:102D800070012501BEF1400F18BF0022B5E6694A67
:102D90000D784878157050708D78C8789570D0701F
:102DA00010680D79157186284D7989795571917161
:102DB00000F09B816049614E0A78307882F001050D
:102DC000002842F002020D700CBF8821C82149F88A
:102DD000321009EBC20280F0010000213070516016
:102DE0009EE642F22120814240F0CB81544B554C6B
:102DF0005549A8781D682560CDF804E008700020CA
:102E000002908046844604464B490D7845F0020EF8
:102E100009EBCE030393019B002B039B5C600CBF6B
:102E20008824C82444EA080385F0010449F83E30A8
:102E300032700C70DFF8E0E0404BDFF8FC800028D7
:102E400040F01E81BCF1400F1BD144F0020C09EB95
:102E5000CC03029CDFF8C0E05C60002A40F02681D1
:102E6000020442F088029DF804304EF83C200444ED
:102E700033700D702346402803D10020334A3B6055
:102E80001080334A012313704DE600F09DFCA5E548
:102E9000214B2F4828491A614FF0020E80F800E0BC
:102EA0002C4F0A702C49196099602C4E2C4D2D4CDA
:102EB0009A610D213970FF213170DFF8B8E0297077
:102EC0002270294D294A8EF800109F27012406F808
:102ED000047C5D600470DA6007B0BDE8F08F244ABE
:102EE00047F8380013780133137057E543F826008C
:102EF0000E4D3AE58B5D032B00F2F08001A252F8F3
:102F000023F000BF9D2900009D290000C12F000073
:102F1000BB2F0000F498FF1F0080FF1FD098FF1FF9
:102F20006C98FF1FC098FF1FF898FF1F1898FF1F8D
:102F3000749AFF1F7C9AFF1FE898FF1F7C98FF1F61
:102F40009497FF1F849AFF1F0C99FF1F2898FF1F5B
:102F500094200740C0200740880040008820074098
:102F600080200740982007402C98FF1F8098FF1F63
:102F7000E998FF1F8C200740C149C24B80220D20D9
:102F800008701A70A2077FF50EAE05E640F2023215
:102F9000914240F0EE80A98801F07F01042968D8B1
:102FA0006A88002A65D1B648CDF804E08900084453
:102FB000017841F00201017021E701238B55EDE416
:102FC00000238B55EAE44FF0010388F80030013507
:102FD000042D06F1040607F1040708F101087FF447
:102FE000A1AEA94CA94B2278A94D049F059E0021B2
:102FF00029701A70130700F105816278A549DFF87E
:10300000A0820A7010074FF00001C9F83010C9F80B
:10301000381000F1E080A049A2780A700021C9F8B8
:103020005010C9F858101107DFF8748200F10181BF
:10303000E2789A499A4C0A7000211207C9F8701078
:10304000C9F8781000F1B08033780193002183F043
:103050000102C9F89010C9F89810D0E64FF00003AB
:1030600088F80030B3E7A98801F07F01042940F215
:103070008D80834A0F2313708A4A0123137052E50F
:1030800040287FF6E2AE44F002040EEBC401029E3B
:103090004E60BAB19DF80410834A19703346403827
:1030A00088F8005040334EF83420E7E69DF80430AD
:1030B00033700204029B0D7042F0C80203444EF8C4
:1030C0003C20D8E69DF804101970029B774A88F8D6
:1030D0000050403840334EF83420CFE619F0080F46
:1030E0000CBF022303238B5558E4714A0F21117042
:1030F00060E6704A5468002CBBD06888B5F804E0DC
:1031000003E00C325468002CB3D013888342F8D10A
:1031100053887345F5D1000A03280CBF94F800E0EA
:10312000B2F808E003E0644A644C12782270E88840
:10313000704580F03F8162490D784028844645F013
:10314000020E28BF4FF0400C04EB0C0309EBCE023B
:10315000029301235460CCEB00004FEA0C4800229C
:103160000193C8245EE6554C4FF0020E2270627047
:10317000DDE7B1F5A06F7FF47CAF0123002201935E
:103180003DE642F221329142F7D072E76A88002A86
:103190007FF46FAF3A48CDF804E089000844017825
:1031A00021F0020101702AE600F082F9002800F007
:1031B000EF8008303D4AC4F88400C4F8802000F055
:1031C00077F9002800F0DE800830374AC9F88C0013
:1031D000C9F8882038E700F06BF9002800F0C080BB
:1031E0000830324AC8F84400C8F8402000F060F9BE
:1031F000002800F0AF8008302B4AC9F84C00C9F80D
:10320000482008E700F054F9002800F0CD8008308D
:10321000264AC9F82400C9F8202000F049F90028FE
:1032200000F0BC800830204AC9F82C00C9F82820DA
:10323000E3E600F03DF9002800F09E8008301B4ACC
:10324000C8F86400C8F8602000F032F9002800F0E7
:103250008D800830144AC9F86C00C9F86820E7E688
:10326000C86B083800F044F904E5486B083800F0F2
:103270003FF9F9E4C86A083800F03AF9EEE400BF13
:10328000C02007408020074014B50000C42007403C
:10329000E998FF1FC8200740CC200740D0200740F6
:1032A0000080FF1F94200740C800400088004000B5
:1032B0007D98FF1F18B50000F498FF1FEC98FF1FC2
:1032C000E898FF1F606A083800F012F9C0E4C86F80
:1032D000083800F00DF9FDE4486F083800F008F9EF
:1032E000F2E4C86E083800F003F9E7E4486E0838E5
:1032F00000F0FEF8DCE4C86D083800F0F9F8D1E41D
:10330000486D083800F0F4F8C6E4C86C083800F0DE
:10331000EFF8BBE4486C083800F0EAF8B0E4D1F804
:103320009C00083800F0E4F8ECE4D1F89400083888
:1033300000F0DEF8E0E4D1F88C00083800F0D8F8AE
:10334000D4E4D1F88400083800F0D2F8C8E44FF093
:10335000020EECE62A78C9F8480001322A705AE6D3
:103360002A78C8F8400001322A703FE72A78C9F865
:10337000680001322A705BE62A78C8F860000132E2
:103380002A7061E72A78C9F8880001322A705BE662
:103390002A78C4F8800001322A7010E72A78C9F828
:1033A000280001322A7028E62A78C9F82000013264
:1033B0002A7032E7BEF1400FF44628BF4FF0400CB0
:1033C00004EB0C0302930123CCEB0E004FEA0C48F4
:1033D0000022019318E500BFF8B500F0ABFD294BC2
:1033E00029482A4C2A4F2B4DDFF8BCC0DFF8BCE03F
:1033F000294E00221A605A609A60DA601A615A6196
:103400009A61DA611A625A629A62DA621A635A63DC
:103410009A63DA631A645A649A64DA641A655A65BC
:103420009A65DA651A665A669A66DA661A675A679C
:103430009A67DA67C3F880200168C3F8842041F4F2
:1034400080210160C3F307212170C3F307401349B2
:1034500038701B0E2B70FF238CF80030104D8EF847
:10346000003010480B700123337084F864207026FC
:103470004FF40074102207F82C3C2E70046081F881
:10348000F820F8BD0080FF1F348004409C200740D6
:10349000B0200740B4200740942007401020074088
:1034A00049E400E008E100E0802007408820074070
:1034B00072B60D480268B2FA82F30B2B10DC4FF0A3
:1034C0000041D94022EA0102026062B6074803EBDC
:1034D000C303DB00C2180021C15010465160704781
:1034E00062B60020704700BFF888FF1FBC83FF1F33
:1034F0000D4B0E4AC31AA2FB03231B090B2B0CD83E
:103500000B4A127852B972B60A484FF0004102686D
:1035100021FA03F31A43026062B67047064A127832
:10352000002AF0D0FFF74AB9BC83FF1F398EE33879
:10353000E998FF1FF888FF1FF498FF1F38B50F4D5B
:10354000286878B143880288C118013393420C7A05
:1035500002D24380204638BDFFF7CAFF0023204631
:103560002B6038BD064B1B782BB10320FFF7F2F818
:1035700028600028E6D14FF0FF3038BD0899FF1FC2
:10358000F498FF1F10B5094C206818B143881844FF
:10359000007A10BD064B1B782BB10320FFF7DAF839
:1035A00020600028F2D14FF0FF3010BD0899FF1FB6
:1035B000F498FF1F044B054A1B6890881BB11A88BA
:1035C0005B88D31A184470470899FF1F749AFF1F2D
:1035D0000B4B1B789BB110B50A4C206848B1FFF724
:1035E00087FF002303202360FFF7B4F830B1FFF713
:1035F0007FFF0320FFF7AEF80028F8D110BD704719
:10360000F498FF1F0899FF1F2DE9F04FDFF8F8909D
:1036100083B0012289F80020019169B3DFF8EC80C2
:10362000364F019E8346D8F80000B0B3344D44882D
:10363000C4F14001B14228BF314604EB010E002223
:103640001FFA8EFE2A70761AA0F802E000F1080236
:1036500051B1013C224459441BF8014B02F8014F7F
:103660008B45F9D1B0F802E0BEF13F0F0BD8254AE7
:1036700005211170002ED6D10198002389F8003061
:1036800003B0BDE8F08F4022028001460420FFF71E
:10369000F9F80022C8F80020E9E73A782AB3184D73
:1036A00048F601444FF0010A07E0013C16D02A78A1
:1036B000A2B900F01FFA3A78BAB10420FFF768F80F
:1036C0000728F2D889F800A0FFF7F2FEC8F800003A
:1036D0000028ACD10C4B013C1870E8D101234FF00D
:1036E000FF302B7003B0BDE8F08F00234FF0FF30A8
:1036F00089F8003003B0BDE8F08F00BFF498FF1FD9
:103700000499FF1FFC98FF1FFD98FF1F0099FF1FE2
:1037100000B583B002AB012103F8010D1846FFF795
:1037200073FF03B05DF804FB38B50E4D0E4C2868EE
:103730000123237028B1408800232370C0F140008A
:1037400038BD0A4B1B7813B90020207038BD042007
:10375000FFF71EF80728F7D8FFF7AAFE2860002811
:10376000E9D1F1E70099FF1FFD98FF1FF498FF1FB3
:10377000F8B5114B1B788BB1104E114D34680127F1
:103780002F7064B10F4A6388002717702146238089
:103790000420FFF777F8376000232B70F8BDFFF7A0
:1037A00087FE084B28B1014604201C70FFF76AF819
:1037B000F2E71F70F0E700BFF498FF1F0099FF1FAA
:1037C000FD98FF1FFC98FF1F38B50E4B1B7873B98F
:1037D0000D4C216861B103F0FF054B880B8004207C
:1037E000FFF750F8256038BD084B01221A7038BD2C
:1037F000FFF75EFE0028F7D00146BDE83840042000
:10380000FFF740B8FD98FF1F0099FF1FFC98FF1FAE
:1038100010B4EFF3108272B6437F33B9017F0129F0
:1038200007D003290FD00123437702B962B610BC39
:103830007047124C2168A1B1114943610B68836143
:1038400008605861EFE70F4C216881B10E49436170
:103850000B688361086058610C4B4FF08051196010
:10386000E1E7074B4161816120601860DBE7064BAF
:103870004161816120601860EEE700BF2099FF1F61
:103880001C99FF1F1099FF1F1499FF1F04ED00E002
:1038900010B4047F4160022CC26002D010BCFFF75C
:1038A000B7BF836810BC184770B5EFF3108272B6CB
:1038B0000C4C206880B10C4E00254369236073B125
:1038C0009D6102B962B6457783689847EFF310822D
:1038D00072B620680028F0D102B962B670BD3360BC
:1038E000EFE700BF1099FF1F1499FF1FFFF7DCBF20
:1038F000184A30B41468002C27D0036821688B4222
:103900000ED2CB1A00218460C1602360E060106099
:103910000223037530BC704711688B42144608D3EC
:10392000A2685B1A0360002AF6D18260C460A060BE
:10393000EEE7D268C2608460E060C568CB1A0222FC
:10394000A8602360027530BC70478460C46010605A
:10395000DEE700BF1899FF1FF8B5224E34682CB37C
:103960002368002B3AD1204F1D4604E03468ECB1A7
:103970002368002B32D1A36803B1DD602069336076
:10398000036825751B68BB4221D1037F4560022B6C
:10399000C46020D0FFF73CFF6368002BE6D02360B3
:1039A0002046FFF7A5FF3468002CE1D1EFF3108328
:1039B00072B60E4A00211068116003B962B628B1D0
:1039C0008468FFF795FF20460028F9D1F8BD22460C
:1039D00000219847E0E783689847DDE7013B2360D3
:1039E000E4E700BF1899FF1F913800002899FF1FD6
:1039F000024A136801331360FFF7AEBF9497FF1FAD
:103A000000B5064A036812885B6883B001A9ADF867
:103A100004200222984703B05DF804FBE8B40000DC
:103A2000F0B507468BB0002A33D0012A08BF0A221E
:103A300051B3212400E0F4B2B1FBF2F502FB151101
:103A4000C8B2092900F1300198BFC8B20AA988BFDD
:103A50003730214488BFC0B201F8240C661E2946C5
:103A6000002DE8D133B1013CE4B20AAB23442D224E
:103A700003F8242C3B6801AA11195B683846C4F18D
:103A8000220298470BB0F0BD30228DF8252021246A
:103A9000E8E70368C9B21B6898470BB0F0BD00BFE8
:103AA0000029BABF49422D2300230A22FFF7B8BFDD
:103AB00041EA0020704700BF08B5FDF7FBFBFDF7AA
:103AC000D9FD00F017F8FAE7FFF782BDFFF75ABDFE
:103AD000FFF734BDFFF76EBDFFF74ABEFFF724BE08
:103AE00008461146FFF790BD0846FFF711BE00BF1C
:103AF000704700BF38B5224C237803B138BD01238D
:103B00002370FFF757FD70BB00F002F940BBFEF7D2
:103B100057FD10BB00F092F9E0B900232370EFF3DA
:103B20000583002BEAD1EFF3108172B6154B1868AC
:103B3000E0B1154C2278CAB945691D600123237094
:103B4000C5B1AA6101B962B6002545778368984777
:103B50002570D3E700F034FADFE700F02FFAD9E759
:103B600000F02AFAD3E7FFF7C3FFCDE70029C5D15C
:103B700062B638BD054B1D600029E5D1E3E700BF03
:103B80002C99FF1F2099FF1F2499FF1F1C99FF1FCD
:103B9000844641EA000313F003036DD1403A41D358
:103BA00051F8043B40F8043B51F8043B40F8043B17
:103BB00051F8043B40F8043B51F8043B40F8043B07
:103BC00051F8043B40F8043B51F8043B40F8043BF7
:103BD00051F8043B40F8043B51F8043B40F8043BE7
:103BE00051F8043B40F8043B51F8043B40F8043BD7
:103BF00051F8043B40F8043B51F8043B40F8043BC7
:103C000051F8043B40F8043B51F8043B40F8043BB6
:103C100051F8043B40F8043B51F8043B40F8043BA6
:103C2000403ABDD2303211D351F8043B40F8043B46
:103C300051F8043B40F8043B51F8043B40F8043B86
:103C400051F8043B40F8043B103AEDD20C3205D356
:103C500051F8043B40F8043B043AF9D2043208D04E
:103C6000D2071CBF11F8013B00F8013B01D30B88C0
:103C700003806046704700BF082A13D38B078DD09E
:103C800010F003038AD0C3F10403D21ADB071CBF70
:103C900011F8013B00F8013B80D331F8023B20F8DA
:103CA000023B7BE7043AD9D3013A11F8013B00F813
:103CB000013BF9D20B7803704B7843708B7883709B
:103CC00060467047F0B44D1E2E46002400E00134DB
:103CD000B0FBF2F302FB1300092800F130078ABFA2
:103CE0003730F8B2C0B206F8010F1846002BEED1FB
:103CF0000A1953704CB1107815F8016F2870013310
:103D0000E01A834202F80169F5DB0846F0BC70470F
:103D1000054A064B10781B78C0B2DBB2984238BF18
:103D20004030C01A704700BF3499FF1F3599FF1FFC
:103D3000F0B4384B1A7912F0300F2CD072B6997D4E
:103D400001F0FF0200293DD062B6334F3349387885
:103D50000D78334E1C46C0B2EDB2431C402BE179C6
:103D600028BF0023AB4202F1FF32C9B21CBFF1549D
:103D7000184612F0FF02F0D12A4B1B68C2B23A700B
:103D80004BB1A84236BFC5F14005401B401927285A
:103D9000C4BF01221A701F49CA78D2B2150616D4C0
:103DA00052060DD51B4B1B795B0609D51E4B1F49CF
:103DB0001B6800220A7003B11A70164B3C22DA709D
:103DC000F0BC70474022D9795A7462B6E3E70B79A8
:103DD0001C06E5D5164B174E1C783378E4B2DBB2DF
:103DE0009C420ED0144D01E0A3420AD00133402B77
:103DF00028BF00230879E85CC0B2C871087D072895
:103E0000F2D9DBB2034933700B79180644BF7C2327
:103E1000CB70C5E700A006403499FF1F3599FF1FFE
:103E20007899FF1F3099FF1FBC99FF1FB899FF1F9A
:103E3000C099FF1FB999FF1F3899FF1F054A064B0C
:103E400010781B78C0B2DBB2984238BF4030C01A3D
:103E5000704700BFC899FF1FC999FF1F30B42B4B93
:103E60001A7994061FD52A48DA790378294901334B
:103E70003F2B0978C8BF00238B42D2B203D0264C17
:103E8000D9B2E2540170254A116861B1244A12780E
:103E9000D2B2934236BFC2F140029B1A9B18272B25
:103EA000C4BF01230B70194AD378DBB2180611D4B2
:103EB0005A060DD5154B1B795B0609D5194B1A49C6
:103EC0001B6800220A7003B11A70104B2C22DA70A2
:103ED00030BC704711790906EAD5144910480C78AE
:103EE0000178C9B28C420DD04A1C272A84BF002118
:103EF0000A460F4D054C98BFD1B2AA5CD2B2E2710E
:103F00000170D5E76C21D170D2E700BF00C0064038
:103F1000C899FF1FC999FF1FF499FF1FC499FF1F7C
:103F2000359AFF1F389AFF1F349AFF1F3C9AFF1FD4
:103F3000CC99FF1F70B584B072B6194B194D1A4851
:103F4000702241260F2480211A702E701A460470A8
:103F5000197013781B06FCD5144B186862B6144B05
:103F6000144C984298BF00EB800001A998BF400014
:103F70000A22FFF7A7FE01A92046002311F8012B12
:103F800001333AB10A2B20F8022FF7D11623237000
:103F900004B070BD5B00DBB2237004B070BD00BF25
:103FA00000000240070002400600024008000240F4
:103FB0007F9698009889FF1F704700BF704700BF29
:103FC000704700BF81F0004102E000BF83F0004372
:103FD00030B54FEA41044FEA430594EA050F08BFA4
:103FE00090EA020F1FBF54EA000C55EA020C7FEA68
:103FF000645C7FEA655C00F0E2804FEA5454D4EBE5
:104000005555B8BF6D420CDD2C4480EA020281EAAE
:10401000030382EA000083EA010180EA020281EAE6
:104020000303362D88BF30BD11F0004F4FEA013138
:104030004FF4801C4CEA113102D0404261EB410147
:1040400013F0004F4FEA03334CEA133302D05242CD
:1040500063EB430394EA050F00F0A780A4F1010489
:10406000D5F1200E0DDB02FA0EFC22FA05F28018C3
:1040700041F1000103FA0EF2801843FA05F35941A9
:104080000EE0A5F120050EF1200E012A03FA0EFC28
:1040900028BF4CF0020C43FA05F3C01851EBE37152
:1040A00001F0004507D54FF0000EDCF1000C7EEB6F
:1040B00000006EEB0101B1F5801F1BD3B1F5001FAD
:1040C0000CD349085FEA30004FEA3C0C04F10104CC
:1040D0004FEA445212F5800F80F09A80BCF1004FF5
:1040E00008BF5FEA500C50F1000041EB045141EA77
:1040F000050130BD5FEA4C0C404141EB010111F478
:10410000801FA4F10104E9D191F0000F04BF014622
:104110000020B1FA81F308BF2033A3F10B03B3F100
:1041200020020CDA0C3208DD02F1140CC2F10C0290
:1041300001FA0CF021FA02F10CE002F11402D8BFEE
:10414000C2F1200C01FA02F120FA0CFCDCBF41EABA
:104150000C019040E41AA2BF01EB0451294330BD89
:104160006FEA04041F3C1CDA0C340EDC04F1140466
:10417000C4F1200220FA04F001FA02F340EA03003D
:1041800021FA04F345EA030130BDC4F10C04C4F183
:10419000200220FA02F001FA04F340EA0300294663
:1041A00030BD21FA04F0294630BD94F0000F83F4AD
:1041B000801306BF81F480110134013D4EE77FEA90
:1041C000645C18BF7FEA655C29D094EA050F08BFDC
:1041D00090EA020F05D054EA000C04BF19461046BD
:1041E00030BD91EA030F1EBF0021002030BD5FEA01
:1041F000545C05D14000494128BF41F0004130BD29
:1042000014F580043CBF01F5801130BD01F000457C
:1042100045F0FE4141F470014FF0000030BD7FEAEF
:10422000645C1ABF194610467FEA655C1CBF0B46EA
:10423000024650EA013406BF52EA033591EA030F01
:1042400041F4002130BD00BF90F0000F04BF0021F9
:10425000704730B54FF4806404F132044FF000052C
:104260004FF0000150E700BF90F0000F04BF0021A5
:10427000704730B54FF4806404F1320410F000450B
:1042800048BF40424FF000013EE700BF42004FEA06
:10429000E2014FEA31014FEA02701FBF12F07F4383
:1042A00093F07F4F81F06051704792F0000F14BF80
:1042B00093F07F4F704730B54FF4607401F00045C4
:1042C00021F0004120E700BF50EA010208BF70471B
:1042D00030B54FF000050AE050EA010208BF704710
:1042E00030B511F0004502D5404261EB41014FF479
:1042F000806404F132045FEA915C3FF4DCAE4FF07D
:1043000003025FEADC0C18BF03325FEADC0C18BF63
:10431000033202EBDC02C2F1200300FA03FC20FAB4
:1043200002F001FA03FE40EA0E0021FA02F1144401
:10433000C1E600BF70B54FF0FF0C4CF4E06C1CEA16
:1043400011541DBF1CEA135594EA0C0F95EA0C0F8B
:1043500000F0DEF82C4481EA030621EA4C5123EAFE
:104360004C5350EA013518BF52EA033541F480112D
:1043700043F4801338D0A0FB02CE4FF00005E1FBE0
:1043800002E506F00042E0FB03E54FF00006E1FB2A
:1043900003569CF0000F18BF4EF0010EA4F1FF046D
:1043A000B6F5007F64F5407404D25FEA4E0E6D41AD
:1043B00046EB060642EAC62141EA55514FEAC520BE
:1043C00040EA5E504FEACE2EB4F1FD0C88BFBCF53A
:1043D000E06F1ED8BEF1004F08BF5FEA500E50F1EB
:1043E000000041EB045170BD06F0004646EA0101B1
:1043F00040EA020081EA0301B4EB5C04C2BFD4EBE3
:104400000C0541EA045170BD41F480114FF0000EDB
:10441000013C00F3AB8014F1360FDEBF002001F049
:10442000004170BDC4F10004203C35DA0C341BDCC3
:1044300004F11404C4F1200500FA05F320FA04F095
:1044400001FA05F240EA020001F0004221F00041C9
:1044500010EBD37021FA04F642EB06015EEA430E3C
:1044600008BF20EAD37070BDC4F10C04C4F120056C
:1044700000FA04F320FA05F001FA04F240EA02001F
:1044800001F0004110EBD37041F100015EEA430EF0
:1044900008BF20EAD37070BDC4F1200500FA05F210
:1044A0004EEA020E20FA04F301FA05F243EA02038F
:1044B00021FA04F001F0004121FA04F220EA02009E
:1044C00000EBD3705EEA430E08BF20EAD37070BDE4
:1044D00094F0000F0FD101F00046400041EB0101C4
:1044E00011F4801F08BF013CF7D041EA060195F0A6
:1044F000000F18BF704703F00046520043EB030360
:1045000013F4801F08BF013DF7D043EA060370474C
:1045100094EA0C0F0CEA135518BF95EA0C0F0CD057
:1045200050EA410618BF52EA4306D1D181EA03019D
:1045300001F000414FF0000070BD50EA410606BF97
:104540001046194652EA430619D094EA0C0F02D1DC
:1045500050EA013613D195EA0C0F05D152EA033621
:104560001CBF104619460AD181EA030101F000413F
:1045700041F0FE4141F470014FF0000070BD41F088
:10458000FE4141F4780170BD70B54FF0FF0C4CF462
:10459000E06C1CEA11541DBF1CEA135594EA0C0F81
:1045A00095EA0C0F00F0A7F8A4EB050481EA030ECE
:1045B00052EA03354FEA013100F088804FEA0333B5
:1045C0004FF0805545EA131343EA12634FEA022283
:1045D00045EA111545EA10654FEA00260EF0004144
:1045E0009D4208BF964244F1FD0404F5407402D296
:1045F0005B084FEA3202B61A65EB03055B084FEA27
:1046000032024FF480104FF4002CB6EB020E75EB23
:10461000030E22BFB61A754640EA0C005B084FEA4B
:104620003202B6EB020E75EB030E22BFB61A7546C8
:1046300040EA5C005B084FEA3202B6EB020E75EB13
:10464000030E22BFB61A754640EA9C005B084FEA8B
:104650003202B6EB020E75EB030E22BFB61A754698
:1046600040EADC0055EA060E18D04FEA051545EA87
:1046700016754FEA06164FEAC30343EA52734FEA30
:10468000C2025FEA1C1CC0D111F4801F0BD141EAA9
:1046900000014FF000004FF0004CB6E711F4801F0E
:1046A00004BF01430020B4F1FD0C88BFBCF5E06FEE
:1046B0003FF6AFAEB5EB030C04BFB6EB020C5FEAFE
:1046C000500C50F1000041EB045170BD0EF0004E53
:1046D0004EEA113114EB5C04C2BFD4EB0C0541EA85
:1046E000045170BD41F480114FF0000E013C90E682
:1046F00045EA060E8DE60CEA135594EA0C0F08BF46
:1047000095EA0C0F3FF43BAF94EA0C0F0AD150EA44
:1047100001347FF434AF95EA0C0F7FF425AF1046D7
:1047200019462CE795EA0C0F06D152EA03353FF4FF
:10473000FDAE1046194622E750EA410618BF52EA7C
:1047400043067FF4C5AE50EA41047FF40DAF52EA50
:1047500043057FF4EBAE12E74FF0FF3C06E000BFED
:104760004FF0010C02E000BF4FF0010C4DF804CDFA
:104770004FEA410C7FEA6C5C4FEA430C18BF7FEABA
:104780006C5C1BD001B050EA410C0CBF52EA430CE8
:1047900091EA030F02BF90EA020F0020704710F168
:1047A000000F91EA030F58BF994208BF90422CBFF7
:1047B000D8176FEAE37040F0010070474FEA410CF0
:1047C0007FEA6C5C02D150EA013C07D14FEA430C0E
:1047D0007FEA6C5CD6D152EA033CD3D05DF8040B7F
:1047E000704700BF8446104662468C4619466346B1
:1047F00000E000BF01B5FFF7B7FF002848BF10F188
:10480000000F01BD4DF808EDFFF7F4FF0CBF0120CC
:1048100000205DF808FB00BF4DF808EDFFF7EAFF48
:1048200034BF012000205DF808FB00BF4DF808ED03
:10483000FFF7E0FF94BF012000205DF808FB00BFF8
:104840004DF808EDFFF7CEFF94BF012000205DF882
:1048500008FB00BF4DF808EDFFF7C4FF34BF01208F
:1048600000205DF808FB00BF4FEA410C7FEA6C5C5A
:1048700002D150EA013C0AD14FEA430C7FEA6C5C5A
:1048800002D152EA033C02D14FF0000070474FF0D2
:10489000010070474A0011D212F5001211D20DD555
:1048A0006FF47873B3EB62520ED44FEAC12343F036
:1048B000004343EA505323FA02F070474FF00000E0
:1048C000704750EA013002D14FF0FF3070474FF08F
:1048D000000070474FEA4102B2F1E04324BFB3F554
:1048E000001CDCF1FE5C0DD901F0004C4FEAC00267
:1048F0004CEA5070B2F1004F40EB830008BF20F04B
:104900000100704711F0804F21D113F13872BCBF04
:1049100001F00040704741F480114FEA5252C2F159
:104920001802C2F1200C10FA0CF320FA02F018BFA2
:1049300040F001004FEAC1234FEAD32303FA0CFCF5
:1049400040EA0C0023FA02F34FEA4303CCE77FEA84
:10495000625307D150EA01331EBF4FF0FE4040F4CE
:104960004000704701F0004040F0FE4040F400007D
:10497000704700BF80F0004002E000BF81F00041BE
:1049800042001FBF5FEA410392EA030F7FEA226CF5
:104990007FEA236C6AD04FEA1262D2EB1363C1BF85
:1049A000D218414048404140B8BF5B42192B88BFF4
:1049B000704710F0004F40F4000020F07F4018BF17
:1049C000404211F0004F41F4000121F07F4118BF37
:1049D000494292EA030F3FD0A2F1010241FA03FCDF
:1049E00010EB0C00C3F1200301FA03F100F00043C7
:1049F00002D5494260EB4000B0F5000F13D3B0F18F
:104A0000807F06D340084FEA310102F10102FE2AFD
:104A100051D2B1F1004F40EBC25008BF20F001006D
:104A200040EA03007047490040EB000010F4000F1B
:104A3000A2F10102EDD1B0FA80FCACF1080CB2EBAE
:104A40000C0200FA0CF0AABF00EBC250524218430D
:104A5000BCBFD0401843704792F0000F81F40001B2
:104A600006BF80F400000132013BB5E74FEA410385
:104A70007FEA226C18BF7FEA236C21D092EA030FF1
:104A800004D092F0000F08BF0846704790EA010F6B
:104A90001CBF0020704712F07F4F04D1400028BF98
:104AA00040F00040704712F100723CBF00F500007A
:104AB000704700F0004343F0FE4040F400007047B0
:104AC0007FEA226216BF08467FEA2363014642025C
:104AD00006BF5FEA412390EA010F40F4800070476F
:104AE0004FF0000304E000BF10F0004348BF404215
:104AF0005FEA000C08BF704743F0964301464FF051
:104B000000001CE050EA010208BF70474FF00003AC
:104B10000AE000BF50EA010208BF704711F00043ED
:104B200002D5404261EB41015FEA010C02BF8446BD
:104B30000146002043F0B64308BFA3F18053A3F51C
:104B40000003BCFA8CF2083AA3EBC25310DB01FA63
:104B500002FC634400FA02FCC2F12002BCF1004FE7
:104B600020FA02F243EB020008BF20F00100704778
:104B700002F1200201FA02FCC2F1200250EA4C00CC
:104B800021FA02F243EB020008BF20EADC70704712
:104B90004FF0FF0C1CEAD0521EBF1CEAD15392EA20
:104BA0000C0F93EA0C0F6FD01A4480EA010C4002FC
:104BB00018BF5FEA41211ED04FF0006343EA501056
:104BC00043EA5111A0FB01310CF00040B1F5000F98
:104BD0003EBF490041EAD3715B0040EA010062F147
:104BE0007F02FD2A1DD8B3F1004F40EBC25008BF31
:104BF00020F00100704790F0000F0CF0004C08BF4F
:104C000049024CEA502040EA51207F3AC2BFD2F11B
:104C1000FF0340EAC250704740F400004FF0000329
:104C2000013A5DDC12F1190FDCBF00F00040704763
:104C3000C2F10002410021FA02F1C2F1200200FAA1
:104C400002FC5FEA310040F1000053EA4C0308BF68
:104C500020EADC70704792F0000F00F0004C02BFB9
:104C6000400010F4000F013AF9D040EA0C0093F034
:104C7000000F01F0004C02BF490011F4000F013B8E
:104C8000F9D041EA0C018FE70CEAD15392EA0C0FFC
:104C900018BF93EA0C0F0AD030F0004C18BF31F067
:104CA000004CD8D180EA010000F00040704790F03D
:104CB000000F17BF90F0004F084691F0000F91F0E1
:104CC000004F14D092EA0C0F01D142020FD193EAA7
:104CD0000C0F03D14B0218BF084608D180EA01002F
:104CE00000F0004040F0FE4040F40000704740F00B
:104CF000FE4040F4400070474FF0FF0C1CEAD052D9
:104D00001EBF1CEAD15392EA0C0F93EA0C0F69D034
:104D1000A2EB030280EA010C49024FEA402037D09F
:104D20004FF0805343EA111143EA10130CF0004096
:104D30008B4238BF5B0042F17D024FF4000C8B4286
:104D400024BF5B1A40EA0C00B3EB510F24BFA3EB66
:104D5000510340EA5C00B3EB910F24BFA3EB910336
:104D600040EA9C00B3EBD10F24BFA3EBD10340EA90
:104D7000DC001B0118BF5FEA1C1CE0D1FD2A3FF6D6
:104D800050AF8B4240EBC25008BF20F0010070478B
:104D90000CF0004C4CEA50207F32C2BFD2F1FF032E
:104DA00040EAC250704740F400004FF00003013A5F
:104DB00037E792F0000F00F0004C02BF400010F403
:104DC000000F013AF9D040EA0C0093F0000F01F017
:104DD000004C02BF490011F4000F013BF9D041EA39
:104DE0000C0195E70CEAD15392EA0C0F08D142026C
:104DF0007FF47DAF93EA0C0F7FF470AF084676E73F
:104E000093EA0C0F04D14B023FF44CAF08466EE717
:104E100030F0004C18BF31F0004CCAD130F00042E5
:104E20007FF45CAF31F000437FF43CAF5FE700BF3D
:104E30004FF0FF3C06E000BF4FF0010C02E000BF66
:104E40004FF0010C4DF804CD4FEA40024FEA410308
:104E50007FEA226C18BF7FEA236C11D001B052EABE
:104E6000530C18BF90EA010F58BFB2EB030088BF84
:104E7000C81738BF6FEAE17018BF40F001007047F3
:104E80007FEA226C02D15FEA402C05D17FEA236CD5
:104E9000E4D15FEA412CE1D05DF8040B704700BF1C
:104EA000844608466146FFE70FB5FFF7C9FF0028B3
:104EB00048BF10F1000F0FBD4DF808EDFFF7F4FFEC
:104EC0000CBF012000205DF808FB00BF4DF808ED85
:104ED000FFF7EAFF34BF012000205DF808FB00BFA8
:104EE0004DF808EDFFF7E0FF94BF012000205DF8CA
:104EF00008FB00BF4DF808EDFFF7D2FF94BF01207B
:104F000000205DF808FB00BF4DF808EDFFF7C8FF73
:104F100034BF012000205DF808FB00BF42000ED224
:104F2000B2F1FE4F0BD34FF09E03B3EB126209D4E4
:104F30004FEA002343F0004323FA02F070474FF09A
:104F40000000704712F1610F01D1420202D14FF00F
:104F5000FF3070474FF00000704700BF002101F0A4
:104F6000F5BF00BF0A22002102F0D8B8014B186833
:104F7000704700BFD88DFF1F70B50F4E0F4D761BC9
:104F8000B61018BF002405D0013455F8043B9847EB
:104F9000A642F9D10A4E0B4D761B06F0E1FCB61085
:104FA00018BF002406D0013455F8043B9847A642A8
:104FB000F9D170BD70BD00BF6CB900006CB90000C4
:104FC00078B900006CB90000D0F8EC00704700BF61
:104FD000024B0146186800F003B800BFD88DFF1FD0
:104FE0002DE9F04F01F10B05162D83B0064640F276
:104FF0009F8035F0070500F1BF80A94200F2BC8018
:1050000000F06EFBB5F5FC7FC0F09C826B0A00F0EF
:10501000BA80042B00F28381A80900F1390E4FEA0F
:105020004E033830C44F07EB8303A3F108015C68DB
:10503000A14207D1ACE0002A80F2AC80E468A14232
:1050400000F0A680636823F003035A1B0F2AF2DDE9
:10505000B9493C6901F1080E744500F0B3816368F9
:1050600023F003035A1B0F2A00F39981002AC1F889
:1050700014E0C1F810E080F29E80B3F5007F80F06C
:105080006781DB0803F1010C01229B1002FA03F394
:105090004A6851F83C80C4F8088001EBCC091A43F7
:1050A000A9F10803E3604A6041F83C40C8F80C40AD
:1050B000831001249C40944200F28A80144206D15D
:1050C00020F003006400144200F10400FAD007EB62
:1050D000C009CC468046DCF80C108C4507D173E142
:1050E000002A80F28181C9688C4500F06D814B688F
:1050F00023F003035A1B0F2AF2DD0C46D1F80CC033
:1051000054F8088F4B1945F001054D6042F001013C
:10511000C8F80CC03046CCF808807B613B61C3F80E
:105120000CE0C3F808E059609A5000F0DBFA1FE089
:10513000102921D800F0D4FA1025062302207E4F32
:1051400007EB8303A3F108025C68944200F04581F9
:105150006368E168A56823F00303234430465A6876
:10516000E96042F001028D605A6000F0BBFA083439
:10517000204603B0BDE8F08F00240C2320463360A6
:1051800003B0BDE8F08F80234FF0400E3F2049E789
:1051900070465DE72344E1685A68A56842F0010261
:1051A000E96030468D605A6000F09CFA0834204671
:1051B00003B0BDE8F08F234430465A6842F0010244
:1051C0005A6000F08FFA0834204603B0BDE8F08F33
:1051D000BC68636823F00308A84504D3C5EB080343
:1051E0000F2B00F38C80554BDFF860911A68D9F8CB
:1051F000003001332A4404EB080A00F0608102F514
:1052000080520F3222F47F6222F00F0211463046A4
:10521000019200F059FCB0F1FF3F8346019A00F083
:105220005881824500F2FC80454B1968DA451144EB
:10523000196000F05381D9F80000DFF810E1013067
:105240001BBFCAEB0B0A5144CEF800B019601BF02B
:10525000070100F01781C1F10800C1F580518344B6
:1052600008315A44C2F30B02C2EB010949463046E9
:10527000019300F029FC431C019B00F03F81CBEB24
:1052800000024A4442F001021968C7F808B04944D4
:10529000BC42CBF804201960DFF8A49016D0B8F116
:1052A0000F0F40F2FD806268A8F10C0323F00703A2
:1052B000E01802F001024FF0050E1A430F2B626056
:1052C000C0F804E0C0F808E000F21C811D4BBC6887
:1052D0001A68914288BF19601B4B1A689142626834
:1052E00088BF196022F003029542A2EB050301D8A2
:1052F0000F2B04DC304600F0F5F9002438E7621982
:1053000043F0010345F0010565603046BA60536023
:1053100000F0E8F90834204603B0BDE8F08F142B04
:1053200071D9542B00F2A480280B00F16F0E4FEAC4
:105330004E036E3076E600BF488FFF1F489AFF1F6E
:105340004C9AFF1F449AFF1F409AFF1F5493FF1F60
:105350005A0A042A5ED9142A00F2B38002F15C01D1
:1053600049005B3207EB810C57F82110DFF8DC8134
:10537000ACF1080C8C4500F088804A6822F00302EA
:10538000934202D289688C45F7D1D1F80CC07A6873
:10539000C4F80CC0A160CCF80840CC6088E6631962
:1053A00042F0010745F00105656030464B610B6135
:1053B000C3F80CE0C3F808E05F609A50083400F0CE
:1053C00091F9D5E64A6873E608F1010818F0030F71
:1053D0000CF1080C7FF47FAE30E0DC68A34208BF1C
:1053E00002303FF435AEB3E60B440C465A68C96848
:1053F00054F8085F42F001025A603046E9608D605F
:1054000000F070F9B4E603F15C0E03F15B004FEAC3
:105410004E0307E69A0902F1390149003832A1E743
:10542000BC424A4B3FF400AF9C68626822F0030222
:105430005AE759F80839994540F0828010F0030F77
:1054400000F1FF30F5D17B6823EA04037B60640040
:105450009C423FF6BDAE002C3FF4BAAE1C42404623
:105460007FF435AE64001C4200F10400FAD02EE651
:10547000B3F5AA7F18D8E80B00F1780E4FEA4E0377
:105480007730CFE54FF48051EBE60121D8F80430B6
:10549000921001FA02F21A43C8F80420614677E735
:1054A0000123CBF8043025E740F25452934220D830
:1054B000A80C00F17D0E4FEA4E037C30B2E51032AD
:1054C000A4E6542A26D81A0B02F16F0149006E3265
:1054D00048E7BC68626822F0030205E7CAF30B00E4
:1054E00000287FF4A8AE4244BB6842F001025A6033
:1054F000ECE6FE234FF07F0E7E2093E501224FF075
:105500000009C1E604F10801304604F0B7F9D9F802
:105510000010DBE6B2F5AA7F05D8DA0B02F17801BC
:10552000490077321EE740F254518A4205D89A0C5E
:1055300002F17D0149007C3214E7FE217E2211E751
:105540007B6884E7E808431C5B00F8E5488FFF1F91
:1055500082B049B15AB16BB113780B601278101C4C
:1055600018BF012002B0704701A9002AF3D11046EC
:1055700002B070476FF00100F4E700BF8842F0B559
:105580000DD98B1898420AD28118002A51D09A1A44
:1055900013F8014D01F8014D9342F9D1F0BD0F2AE6
:1055A00048D941EA00039B0746D100F1100401F1FC
:1055B0001003154653F8106C44F8106C53F80C6C3B
:1055C00044F80C6C53F8086C44F8086C103D53F820
:1055D000046C44F8046C0F2D03F1100304F1100463
:1055E000E8D8A2F1100323F00F0302F00F0E1033DE
:1055F000BEF1030F1944034421D91E1F0D46744602
:10560000043C55F8047B46F8047F032CF8D8AEF12F
:10561000040424F0030404342344214402F003026C
:1056200062B1013B0A4411F8014B03F8014F8A4271
:10563000F9D1F0BD0346F3E70346F2E7F0BD724649
:10564000EEE700BF70B4840746D0541E002A41D054
:10565000CDB2034602E0621EE4B3144603F8015BD8
:105660009A07F8D1032C2ED9CDB245EA05250F2C87
:1056700045EA054519D903F110022646103E0F2EC2
:1056800042F8105C42F80C5C42F8085C42F8045C9A
:1056900002F11002F2D8A4F1100222F00F0204F07D
:1056A0000F041032032C13440DD91E462246043A2F
:1056B000032A46F8045BFAD8221F22F003020432C0
:1056C000134404F003042CB1C9B21C4403F8011BB9
:1056D000A342FBD170BC704714460346C2E700BF2B
:1056E000704700BF704700BF2DE9F04F174683B0E9
:1056F000002900F0C1800E46814607F10B05FFF737
:10570000EFFF56F804EC162D2EF00304A6F108085E
:1057100040D810221546AF4241D8944275DAC94BA1
:10572000996808EB04008842416800F0D98021F0B4
:10573000010303445B68DB077DD51EF0010F35D004
:1057400039464846FFF74CFC0746E0B156F8043CA2
:1057500023F001034344A0F108029A4200F044817F
:10576000221F242A00F23181132A00F20481034609
:105770003246116819605168596092689A603146E2
:10578000484604F07BF84846FFF7ACFF384603B0C4
:10579000BDE8F08F25F00705002D2A46BBDA0C2363
:1057A0000020C9F8003003B0BDE8F08F56F8083C7F
:1057B000C3EB080ADAF8043023F0030C04EB0C0303
:1057C0009342BDDB5746DAF80C1057F8080F221F3A
:1057D000242AC160886000F21781132A40F21281E6
:1057E0003168CAF808107168CAF80C101B2A00F258
:1057F0002B8108360AF1100231681160716851601E
:10580000B16891603E461C46D046631B0F2B1DD8E5
:10581000D8F8043003F0010323434444C8F80430AB
:10582000636843F0010363604846FFF75BFF30465F
:1058300003B0BDE8F08F21F003012144914221DB48
:10584000C36882680C46D3609A60DEE7D8F804200B
:1058500008EB050102F00102154343F001020B447D
:10586000C8F804504A605A6842F0010208315A6090
:10587000484604F003F8D7E7114603B0BDE8F04FFF
:10588000FFF7AEBB1EF0010F7FF45AAF56F8083C8D
:10589000C3EB080ADAF8043023F0030C01EB0C0E1A
:1058A00096458BDBC36882685746D3609A6057F889
:1058B000081FDAF80C30CB60221F242A996000F20E
:1058C0009980132A62D93368CAF808307368CAF815
:1058D0000C301B2A00F2A08008360AF1100356E0B3
:1058E00021F0030BA34405F11000834559DA1EF0A3
:1058F000010F7FF425AF56F8081CC1EB080ADAF84F
:10590000041021F0030CE34458453FF757AF5746C6
:10591000DAF80C1057F8080F221F242AC16088609B
:1059200000F2B480132A40F2A5803168CAF808104A
:105930007168CAF80C101B2A00F2AF8008360AF111
:1059400010023168116071685160B16891600AEBB2
:105950000501C5EB0B0242F0010299604A60DAF8DA
:10596000043003F001031D434846CAF80450FFF712
:10597000B9FE38465CE733680360736843601B2AEE
:1059800027D800F1080306F10802F2E63B46326828
:105990001A6072685A60B2689A603E467446D04691
:1059A00033E708EB0501C5EB0B0B4BF001029960E7
:1059B0004A6056F8043C03F001031D43484646F88C
:1059C000045CFFF78FFE304632E73146FFF7D6FD25
:1059D000D5E6B3688360F368C360242A28D000F159
:1059E000100306F11002C4E650F8043C23F0030350
:1059F0001C440AE7314638467446D046FFF7BEFDE0
:105A00003E4602E73A46F7E6314638461C46D0465F
:105A1000FFF7B4FD3E46F8E6B368CAF81030F36805
:105A2000CAF81430242A1BD010360AF11803AEE746
:105A3000336903617369436106F1180200F11803C9
:105A400097E600BF488FFF1FB168CAF81010F168D1
:105A5000CAF81410242A0FD010360AF11802CBE627
:105A60003369CAF818307369CAF81C3018360AF15D
:105A700020038CE73A4664E73269CAF81820726955
:105A8000CAF81C2018360AF12002B5E6314638461D
:105A90000193FFF773FD019B59E7B168CAF8101035
:105AA000F168CAF81410242A03D010360AF118023B
:105AB00047E73269CAF818207269CAF81C201836FC
:105AC0000AF120023DE700BF38B5074C0023054628
:105AD00008462360FCF746F8431C00D038BD236815
